:100000000C94A4010C94CC010C94CC010C94F90533
:100010000C94F9050C94F9050C94CC010C94CC01CA
:100020000C94CC010C94CC010C94CC010C94CC011C
:100030000C94CC010C94CC010C94CC010C94CC010C
:100040000C94AF050C94CC010C9431050C940B0569
:100050000C94CC010C94CC010C94CC010C94CC01EC
:100060000C94CC010C94CC01570A690A6C0A730AEF
:100070007A0AA80AAF0ABC0AC90AD50AD50AD50A5B
:10008000D50AD50AD50AD50AD50AD50AD50AD50A78
:10009000D50AD50AD50AD50AD50AD50AD50AD50A68
:1000A000D50AD50AD50AD50A570A640A690A6C0A1C
:1000B000730A7A0A810A8E0A9B0A00407A10F35A60
:1000C00000A0724E18090010A5D4E80000E8764898
:1000D000170000E40B54020000CA9A3B000000E144
:1000E000F505000080969800000040420F000000D7
:1000F000A08601000000102700000000E8030000B7
:1001000000006400000000000A0000000000010080
:10011000000000002C76D888DC674F0823DFC1DFA1
:10012000AE59E1B1B796E5E3E453C63AE6519976A4
:1001300096E8E6C28426EB898C9B62ED407C6FFCDE
:10014000EFBC9C9F40F2BAA56FA5F490055A2AF720
:100150005C936B6CF9676DC11BFCE0E40D47FEF529
:1001600020E6B500D0ED902E030094357705008091
:10017000841E080000204E0A000000C80C333333F0
:10018000330F986E12831141EF8D2114893BE65590
:1001900016CFFEE6DB18D1844B381BF77C1D901D73
:1001A000A4BBE424203284725E228100C9F124ECD5
:1001B000A1E53D270000000800020100000304073C
:1001C00000000000000000002D2D2D2D2D2D2D2DC7
:1001D0002D2D2D2D2D2D2D2D2D2D2D2D2D2D2D2D4F
:1001E0002D2D2D2D2D2D2D2D2D2D2D2D2D2D2D2D3F
:1001F0002D2D2D2D2D2D2D2D2D2D2D2D2D2D2D2D2F
:100200002D2D2D2D2D2D2D2D2D2D2D2D2D2D2D2D1E
:100210002D2D2D2D2D2D2D2D2D2D2D2D2D2D2D2D0E
:100220002D2D2D2D2D2D2D2D2D2D2D2D2D2D2D2DFE
:100230002D2D2D2D2D2D2D2D2D2D2D2D2D2D2D2DEE
:100240002D2D2D2D2D2D2D2D2D2D2D2D2D2D2D2DDE
:100250000062792048617279205365746961776121
:100260006E0050656D62616361616E2054656B6103
:100270006E616E002D2D2D2D2D2D2D2D2D2D2D2D25
:100280002D2D2D2D2D2D2D2D2D2D2D2D2D2D2D2D9E
:100290002D2D2D2D2D2D2D2D2D2D2D2D2D2D2D2D8E
:1002A0002D2D2D2D2D2D2D2D2D2D2D2D2D2D2D2D7E
:1002B0002D2D2D2D2D2D2D2D2D2D2D2D2D2D2D2D6E
:1002C0002D2D2D2D2D2D2D2D2D2D2D2D2D2D2D2D5E
:1002D0002D2D2D2D2D2D2D2D2D2D2D2D2D2D2D2D4E
:1002E0002D2D2D2D2D2D2D2D2D2D2D2D2D2D2D2D3E
:1002F0002D2D2D2D2D2D2D2D2D2D2D2D00000000E2
:1003000000250028002B0000000000240027002A00
:100310000000000000230026002900040404040457
:1003200004040402020202020203030303030301A2
:100330000204081020408001020408102001020479
:1003400008102000060DFC0C11241FBECFEFD8E0D2
:10035000DEBFCDBF23E0ACE8B1E001C01D92A63402
:10036000B207E1F711E0A0E0B1E0EEE2FDE202C089
:1003700005900D92AC38B107D9F711E0C3EAD1E08E
:1003800004C02197FE010E944414C23AD107C9F764
:100390000E9401070C948A160C940000CF92DF9201
:1003A000EF92FF920F931F93CF93DF936C017A012B
:1003B0008B01C0E0D0E0CE15DF0589F0D8016D914A
:1003C0008D01D601ED91FC910190F081E02DC601E7
:1003D0000995892B11F47E0102C02196ECCFC7014B
:1003E000DF91CF911F910F91FF90EF90DF90CF9011
:1003F0000895FC01538D448D252F30E0842F90E02B
:10040000821B930B541710F0CF960895019708950F
:10041000FC01918D828D981761F0828DDF01A80F0C
:10042000B11D5D968C91928D9F5F9F73928F90E02E
:1004300008958FEF9FEF0895FC01918D828D98179D
:1004400031F0828DE80FF11D858D90E008958FEFDA
:100450009FEF0895FC01918D228D892F90E0805CA3
:100460009F4F821B91098F739927089589ED91E021
:100470000E942A0221E0892B09F420E0822F0895AE
:10048000FC01848DDF01A80FB11DA35ABF4F2C9131
:10049000848D90E001968F739927848FA689B78900
:1004A0002C93A089B1898C9180648C93938D848DD9
:1004B000981306C00288F389E02D80818F7D8083A8
:1004C0000895EF92FF920F931F93CF93DF93EC0168
:1004D00081E0888F9B8D8C8D981305C0E889F98900
:1004E000808185FD24C0F62E0B8D10E00F5F1F4F1D
:1004F0000F731127E02E8C8DE8120CC00FB607FC8D
:10050000FACFE889F989808185FFF5CFCE010E9475
:100510004002F1CF8B8DFE01E80FF11DE35AFF4F32
:10052000F0820B8FEA89FB898081806207C0EE89A7
:10053000FF896083E889F98980818064808381E014
:1005400090E0DF91CF911F910F91FF90EF90089570
:10055000CF93DF93EC01888D8823C9F0EA89FB896A
:10056000808185FD05C0A889B9898C9186FD0FC061
:100570000FB607FCF5CF808185FFF2CFA889B98936
:100580008C9185FFEDCFCE010E944002E7CFDF9135
:10059000CF91089580E090E0892B29F00E943602E7
:1005A00081110C94000008953FB7F8948091D10117
:1005B0009091D201A091D301B091D40126B5A89B0E
:1005C00005C02F3F19F00196A11DB11D3FBFBA2FE5
:1005D000A92F982F8827820F911DA11DB11DBC0145
:1005E000CD0142E0660F771F881F991F4A95D1F70A
:1005F00008952FB7F8946091CD017091CE0180914C
:10060000CF019091D0012FBF08952091D701309153
:10061000D8012817390771F49091D5018091D6013E
:10062000981741F0E091D501F0E0E457FE4F80814A
:1006300090E008958FEF9FEF089508951F93CF9353
:10064000DF93DC015C962D913C915D97211531057E
:1006500039F481E090E013969C938E9312973DC0FD
:100660005196ED91FC91529750969C915097892FFD
:1006700080951FB75E964C915E9741FB772770F986
:1006800041FD6095F8944081772311F0492B01C01A
:1006900048234083E9012197F1F748E0508160FF4A
:1006A00002C0592B01C058235083E9012197F1F76B
:1006B0006695415099F7772321F0908189238083B3
:1006C00003C08081982B90831FBF5C968D919C9175
:1006D0005D970197F1F721E030E0C901DF91CF91FB
:1006E0001F9108952091D7013091D801281739071B
:1006F00071F48091D6012091D50190E0805C9F4FEC
:10070000821B910960E470E00E940E14089580E05D
:1007100090E008952091D7013091D801281739072A
:10072000B9F49091D5018091D601981789F0E091A4
:10073000D501F0E0E457FE4F80812091D50130E0F3
:100740002F5F3F4F2F7333272093D50190E00895FB
:100750008FEF9FEF0895E091D701F091D801E8174E
:10076000F90769F4A389B4899C91858980958923C7
:100770008C931092D8011092D70181E0089580E007
:100780000895089580E090E00895CF93DF93EC0101
:100790008A859B85AC85BD858E839F83A887B98715
:1007A0000E94F9026A837B838C839D8381E0898325
:1007B0008883DF91CF9108952F923F924F925F925D
:1007C0006F927F928F929F92AF92BF92CF92DF9261
:1007D000EF92FF920F931F93CF93DF93D82FC92FE0
:1007E0008B010E94CF0E24E630E040E050E00E94F2
:1007F000221449015A019B01AC0160E876E988E9BD
:1008000090E00E94FE136B017C01F80191828082CE
:10081000ED2FFC2F2191822F022E000C990BC097F7
:100820000A97C0F32E3239F51F0180E8882E86E939
:10083000982E88E9A82EB12C9AE0492E512C612CD3
:10084000712CF101C1911F010C2E000CDD0BE09702
:10085000CA30D10580F4C501B401A30192010E9400
:10086000221449015A01DE010E944A14C60ED71E05
:10087000E81EF91EE6CFA5E0B0E0A70196010E94B0
:1008800095126F5F7F4F8F4F9F4F23E030E040E026
:1008900050E00E942214F80122833383448355835D
:1008A0001682DF91CF911F910F91FF90EF90DF9013
:1008B000CF90BF90AF909F908F907F906F905F9000
:1008C0004F903F902F900895FF920F931F93CF93D7
:1008D000DF93EC01FF24F39488818D3211F0F12C29
:1008E00001C02196CE010E94CF0E9B01AC01A4E66F
:1008F000B0E00E949512FE014991242F042E000CB5
:10090000330B205331092A303105A8F34E3241F51B
:100910002181022E000C330B205331092A3031057E
:10092000F8F44AE0429F8001439F100D1124012EEC
:10093000000C220B330B600F711F821F931F02816B
:10094000002E000C110B005311090A30110540F460
:10095000012E000C220B330B600F711F821F931F9F
:10096000FF2039F090958095709561957F4F8F4F5E
:100970009F4FDF91CF911F910F91FF9008950E949B
:100980005D16EF92FF920F931F93CF93DF93EC01CD
:100990007B01888199816115710519F1FB01019035
:1009A0000020E9F731978F01061B170B009729F0FC
:1009B0002A813B8120173107F8F4B8016F5F7F4F20
:1009C0000E949315009759F0998388831B830A83AB
:1009D0002C813D81232B81F4FC0110820DC0888184
:1009E0009981009711F00E94FB14198218821D82D0
:1009F0001C821B821A8207C01D830C83B701888169
:100A000099810E947416CE01DF91CF911F910F91B1
:100A1000FF90EF9008951F920F920FB60F9211243E
:100A20002F933F934F935F936F937F938F939F93F6
:100A3000AF93BF93EF93FF9389ED91E00E94400243
:100A4000FF91EF91BF91AF919F918F917F916F91A6
:100A50005F914F913F912F910F900FBE0F901F907C
:100A600018951F920F920FB60F9211242F938F9308
:100A70009F93EF93FF93E091E901F091EA01808168
:100A8000E091EF01F091F00182FD12C09081809120
:100A9000F2018F5F8F732091F301821751F0E09183
:100AA000F201F0E0E752FE4F958F8093F20101C012
:100AB0008081FF91EF919F918F912F910F900FBEA9
:100AC0000F901F90189590E0FC01EC54FE4F34916C
:100AD000FC01E15DFC4F2491FC01E55EFC4FE491DB
:100AE000EE2309F43BC0332339F1333091F038F46D
:100AF0003130A9F0323001F584B58F7D12C0373026
:100B000091F03830A1F03430B9F4809180008F7DBD
:100B100003C0809180008F77809380000DC084B5E2
:100B20008F7784BD09C08091B0008F7703C080911A
:100B3000B0008F7D8093B000F0E0EE0FFF1FE35018
:100B4000FD4FA591B4918FB7F894EC91611103C05A
:100B500020952E2301C02E2B2C938FBF08951F921A
:100B60000F920FB60F9211242F933F938F939F9361
:100B7000AF93BF938091CD019091CE01A091CF0111
:100B8000B091D0013091CC0123E0230F2D3720F418
:100B90000196A11DB11D05C026E8230F0296A11DD7
:100BA000B11D2093CC018093CD019093CE01A093F1
:100BB000CF01B093D0018091D1019091D201A09149
:100BC000D301B091D4010196A11DB11D8093D10133
:100BD0009093D201A093D301B093D401BF91AF9170
:100BE0009F918F913F912F910F900FBE0F901F906B
:100BF00018951F920F920FB60F9211242F933F93C7
:100C00004F935F936F937F938F939F93AF93BF9314
:100C1000EF93FF93E091D701F091D801309709F459
:100C200051C0968DA685B785858591FF04C09C919E
:100C3000892329F447C09C91892309F043C0A389E3
:100C4000B4899C918589809589238C93868997891D
:100C50000197F1F7608D718DA685B785558538E0D0
:100C600020E0CB010197F1F7822F90E095958795D1
:100C7000282F4C91452309F02068315091F7868D3B
:100C800081FD20958091D60190E001968F73992780
:100C90003091D501381749F0A091D601B0E0A457A2
:100CA000BE4F2C938093D60103C0868D8160868FC2
:100CB000828D938D0197F1F7A389B4899C918589E1
:100CC000892B8C93FF91EF91BF91AF919F918F9161
:100CD0007F916F915F914F913F912F910F900FBE38
:100CE0000F901F901895009769F0FC01019000206B
:100CF000E9F73197AF01481B590BBC0189ED91E031
:100D00000C94CE0180E090E008950F931F93CF9351
:100D1000DF938C01C0E0D0E0F801EC0FFD1F64917F
:100D2000662371F0E091D901F091DA010190F08130
:100D3000E02D89ED91E00995892B11F02196ECCFFA
:100D40008CE291E00E9473068C0F9D1FDF91CF9182
:100D50001F910F9108958F929F92AF92BF920F9320
:100D60001F93CF93DF93CDB7DEB7A1970FB6F8945B
:100D7000DEBF0FBECDBF19A2423008F44AE08E019B
:100D80000F5D1F4F842E912CA12CB12CA501940135
:100D90000E942214E62FB901CA0101501109EA305C
:100DA00014F4E05D01C0E95CD801EC93232B242B03
:100DB000252B61F7C8010E947306A1960FB6F8941F
:100DC000DEBF0FBECDBFDF91CF911F910F91BF90BE
:100DD000AF909F908F900895CF93DF93FC01448153
:100DE00055816081718189ED91E00E94CE01EC0115
:100DF0008CE291E00E9473068C0F9D1FDF91CF91D2
:100E00000895CF93DF93CDB7DEB7AB970FB6F894C5
:100E1000DEBF0FBECDBF789484B5826084BD84B53B
:100E2000816084BD85B5826085BD85B5816085BDE5
:100E300080916E00816080936E001092810080919D
:100E40008100826080938100809181008160809325
:100E50008100809180008160809380008091B1004A
:100E600084608093B1008091B00081608093B00075
:100E700080917A00846080937A0080917A00826009
:100E800080937A0080917A00816080937A008091CB
:100E90007A00806880937A001092C100E091E901A5
:100EA000F091EA0182E08083E091E501F091E601B2
:100EB0001082E091E701F091E80180E180831092D7
:100EC000F101E091ED01F091EE0186E08083E09187
:100ED000EB01F091EC01808180618083E091EB0176
:100EE000F091EC01808188608083E091EB01F091CA
:100EF000EC01808180688083E091EB01F091EC014E
:100F000080818F7D808310929102109290021092C6
:100F10008F0210928E0210928D0210928C028DE937
:100F200091E0909393028093920290918202963185
:100F300008F057C02DEB30E030938D0220938C02E7
:100F40002BE931E030938F0220938E022CE231E0C6
:100F5000309391022093900220916800983050F0D5
:100F600031E09E3008F430E081E001C0880F3A950E
:100F7000EAF701C084E0822B80936800983038F053
:100F80009E3040F0963148F020E030E008C02DE679
:100F900030E005C02BE630E002C02CE630E03093B4
:100FA0008A0220938902983030F481E001C0880FD2
:100FB0009A95EAF70EC0292F30E09E3018F4285099
:100FC000310902C02E50310981E001C0880F2A95F5
:100FD000EAF780938B02809192029091930201979D
:100FE000F1F78091900290919102892B21F18091EB
:100FF000D7019091D80122E086379207E1F000975F
:1010000011F00E94AB03809194028E7F8093940232
:101010001092D6011092D50186E792E09093D80104
:101020008093D701E0918902F0918A0290818091AA
:101030008B02892B80838DE291E00E9473068CE203
:1010400091E00E94730682E692E00E94850681E5A7
:1010500092E00E94850688EC91E00E9485068CE271
:1010600091E00E9473068824839427E0A22E32E048
:10107000932EBB24B39491E4392E86E792E00E942C
:101080007203181619060CF0A6C486E792E00E94B7
:101090008A03182F8091320390913303A091340377
:1010A000B09135030196A11DB11D80933203909339
:1010B0003303A0933403B0933503143209F4B9C257
:1010C000E0912C03153234F41A3071F01D3009F020
:1010D000BDC20AC01A3241F01C3209F0B7C2809179
:1010E0001903812780931903EF3008F07BC1F0E0EA
:1010F000E55EFC4F108280911A03882309F474C1C5
:1011000020911B033FEB320F822F022E000C990B14
:10111000363010F4C79707C02156263018F487558B
:10112000910901C0C097282F2295207F30911C0380
:101130004FEB430F832F032E000C990B463010F416
:10114000C79707C03156363018F48755910901C04A
:10115000C097820F90911903891331C180913E038A
:1011600090913F03A0914003B09141030196A11DCE
:10117000B11D80933E0390933F03A0934003B0932F
:10118000410380912D03882399F08091360390913B
:101190003703A0913803B09139030196A11DB11D09
:1011A0008093360390933703A0933803B0933903A9
:1011B00000912A03002309F46BC0013009F0D0C06C
:1011C0008091BD029091BE02A091BF02B091C00279
:1011D0008093B9029093BA02A093BB02B093BC0271
:1011E0000E94F9026093C1027093C2028093C3020D
:1011F0009093C4020093B8020093B7028091CB028F
:101200009091CC02A091CD02B091CE028093C70202
:101210009093C802A093C902B093CA020E94F90237
:101220006093CF027093D0028093D1029093D20248
:101230000093C6020093C50280912D03882309F410
:101240008FC0E5EAF2E0A7E9B2E08A2D01900D92A5
:101250008A95E1F7ECEAF2E0AEE9B2E08A2D01907E
:101260000D928A95E1F70E94F9026093B3027093A0
:10127000B4028093B5029093B60200939602009355
:10128000950283ED92E00E94C50381EE92E066C074
:101290008091CB029091CC02A091CD02B091CE0270
:1012A0008093C7029093C802A093C902B093CA0268
:1012B0000E94F9026093CF027093D0028093D10212
:1012C0009093D202B092C602B092C50280912D03D3
:1012D000882321F1E5EAF2E0A7E9B2E08A2D019046
:1012E0000D928A95E1F7ECEAF2E0AEE9B2E08A2DE0
:1012F00001900D928A95E1F70E94F9026093B30282
:101300007093B4028093B5029093B602B0929602A5
:10131000B09295028FEE92E00E94C5038091070380
:1013200090910803A0910903B0910A0380930303ED
:1013300090930403A0930503B09306030E94F9025F
:101340006093FF0270930003809301039093020364
:10135000B092FE02B092FD028BE093E00E94C503C2
:10136000E0903003F0903103E114F10409F44FC12F
:10137000E0913003F091310366A177A1F70186A1D6
:1013800097A10E946B16892B09F041C1B701C701D3
:1013900040960E9474160E94F902D70190966D93B0
:1013A0007D938D939C93939795968C929597949615
:1013B0008C9294979A96ED90FC909B97D5CF8091C4
:1013C0003A0390913B03A0913C03B0913D030196F9
:1013D000A11DB11D80933A0390933B03A0933C035E
:1013E000B0933D0380E014C190912B03911147C04D
:1013F0006FE271E08BE193E00E946B16892B41F064
:1014000065E371E08BE193E00E946B16892B19F480
:10141000B0922A0315C06BE371E08BE193E00E9468
:101420006B16892B41F061E471E08BE193E00E943F
:101430006B16892B19F410922A0302C090922A038A
:1014400080912E0390912F0390933103809330036A
:10145000E0903003F0903103E114F10419F2F70148
:10146000C6A0D7A06BE173E0C6010E946B1697FF80
:10147000B5C2D7019A968D919C919B97E5CFE0914B
:101480002A03E23009F491C080911B03882309F4F8
:101490008CC020E2E29FF0011124E92B3197E93260
:1014A000F10508F082C0EC5CFF4F0C9444148BE112
:1014B00093E00E9464046093CB027093CC0280930B
:1014C000CD029093CE0271C091E0813409F043C007
:1014D00043C065EA72E009C091E0833509F090E00D
:1014E0009093AB0262C06CEA72E08BE193E00E94E1
:1014F000DC035BC091E0873509F090E09093B20285
:1015000054C08BE193E00E9464046093DD02709309
:10151000DE028093DF029093E00247C08BE193E00C
:101520000E9464046093EB027093EC028093ED02DE
:101530009093EE023AC08BE193E00E94CF0E60934D
:10154000BD027093BE028093BF029093C0022DC073
:1015500091E081330CF490E090932D0326C08BE151
:1015600093E00E94CF0E609307037093080380936B
:10157000090390930A0319C08BE193E00E9464046D
:1015800060931503709316038093170390931803C9
:101590000CC08BE193E00E9464046093F9027093A5
:1015A000FA028093FB029093FC02E0903003F090EB
:1015B0003103E114F10409F415CFE0913003F09107
:1015C000310366A177A1F70186A197A10E946B164E
:1015D000892B09F007CFD70198962D913C919997C7
:1015E00080912B0390E0821793070CF4FBCE281711
:1015F000390739F440E150E06BE173E0C7010E9424
:101600007B16D7019A96ED90FC909B97D2CF81E004
:1016100090912B039F5F90932B0310922C0391E0EA
:101620001A3209F090E090931A03882309F425CD2B
:1016300021C010922C0310922B0310921903909248
:101640002A0310921A0310922D0317CDEE3040F4A6
:1016500081E08E0F80932C03F0E0E55EFC4F108359
:1016600080911A03811109CD8091190318271093D5
:10167000190303CD87E491E00E947306109296024D
:10168000609197027091980280E090E00E9476113C
:101690006B017C016091990270919A0280919B028A
:1016A00090919C020E94761128E23BE64EE65EE4B1
:1016B0000E9453139B01AC01C701B6010E94E712BF
:1016C00020919D02211190581BA21AA21DA21CA2BA
:1016D0001FA21EA28E010F5F1F4F26E048E00E944E
:1016E000AF0EBC01CE0182960E94C104CE0182964B
:1016F0000E94EC068AA19BA10E94FB148AE591E05E
:101700000E9473061092960260919E0270919F0251
:1017100080E090E00E9476116B017C016091A00254
:101720007091A1028091A2029091A3020E94761171
:1017300028E23BE64EE65EE40E9453139B01AC01B7
:10174000C701B6010E94E7122091A402211190580E
:101750001BA21AA21DA21CA21FA21EA28E010F5F15
:101760001F4F26E048E00E94AF0EBC01CE018296DA
:101770000E94C104CE0182960E94EC068AA19BA120
:101780000E94FB148DE691E00E94730630927C006B
:1017900080917A00806480937A0080917A0086FD3F
:1017A000FCCF609178008091790070E0782B072E53
:1017B000000C880B990B0E94781120E030E040EA81
:1017C00050E40E94D71120E030E040E85AE30E9444
:1017D000D71127ED33EA40EF5EE30E94E61220E0E6
:1017E00030E040E450E40E94D71120E034E244E7C6
:1017F00059E40E94D71120E034E244E759E40E9402
:1018000053136B017C012B013C019B01AC010E9435
:10181000F913882319F080E891E01FC0D701C601B1
:10182000BF7788A799A7AAA7BBA72FEF3FEF4FE7DE
:101830005FE7BC01CD010E94F913811111C02FEFA8
:101840003FEF4FE75FE768A579A58AA59BA50E94B2
:10185000711118162CF484E891E00E9473067DC083
:101860002FEF3FEF4FE75FE4C701B6010E94F4138B
:1018700018161CF488E891E0F0CF2FEF3FEF4FE708
:101880005FECC701B6010E94711187FDF3CF20E024
:1018900030E0A901C701B6010E94711187FF11C094
:1018A000E091D901F091DA010190F081E02D6DE233
:1018B00089ED91E009952601370177FA709477F860
:1018C00070942CEB37E346E055E3C301B2010E946C
:1018D000E7126B017C010E94C5132B013C010E94A1
:1018E00076119B01AC01C701B6010E94E6126B01A3
:1018F0007C014AE0C301B2010E94AB06E091D9012C
:10190000F091DA010190F081E02D6EE289ED91E035
:10191000099517E0115009F120E030E040E251E470
:10192000C701B6010E94D7112B013C010E94C513CB
:101930006B01E12CF12C4AE0C701B6010E94AB0615
:10194000C701B6010E9476119B01AC01C301B2012F
:101950000E94E6126B017C01DDCF8CE291E00E94D7
:10196000730684E792E00E948506809100019091C1
:101970000101019690930101809300010E94D4021D
:101980002B013C0180E6C82E8AEED82EE12CF12CEA
:101990000E94D402DC01CB0184199509A609B7097C
:1019A000883E9340A105B10580F091E0C91AD108A5
:1019B000E108F108A8EE4A0EA3E05A1E611C711C52
:1019C000C114D104E104F10419F7C114D104E104F4
:1019D000F104F1F652CB0E94CA024DCB6BE173E0E9
:1019E000C6010E946B16181619060CF0FBCC10925B
:1019F000310310923003F6CC8EE191E090937702A0
:101A00008093760286E792E00C94AB03CF93DF934A
:101A10001092DC011092DB0188EE93E0A0E0B0E0D0
:101A20008093DD019093DE01A093DF01B093E0018C
:101A30002CE031E03093DA012093D90125EC30E03D
:101A40003093E6012093E50124EC30E03093E80187
:101A50002093E70120EC30E03093EA012093E90184
:101A600021EC30E03093EC012093EB0122EC30E0EC
:101A70003093EE012093ED0126EC30E03093F0013D
:101A80002093EF011092F2011092F3011092F401F1
:101A90001092F501109295021092960210929802FF
:101AA000109297021092990210929A0210929B0241
:101AB00010929C0210929D0210929F0210929E0220
:101AC0001092A0021092A1021092A2021092A30200
:101AD0001092A4021092A6021092A5021092A702E0
:101AE0001092A8021092A9021092AA021092AB02C0
:101AF0001092AD021092AC021092AE021092AF02A0
:101B00001092B0021092B1021092B2021092B7027B
:101B10001092B8021092B9021092BA021092BB024F
:101B20001092BC021092C5021092C6021092C70217
:101B30001092C8021092C9021092CA021092D302E7
:101B40001092D4021092D9021092DA021092DB02A3
:101B50001092DC021092E1021092E2021092E7026F
:101B60001092E8021092E9021092EA021092EF023B
:101B70001092F0021092F5021092F6021092F70203
:101B80001092F8021092FD021092FE0210920303CE
:101B900010920403109205031092060310920B0397
:101BA00010920C031092110310921203109213035F
:101BB000109214031092190310921A0322E020933A
:101BC0002A0310922B0310922C0310922D031092D3
:101BD0002F0310922E0310923103109230031092B3
:101BE0003203109233031092340310923503109293
:101BF0003603109237031092380310923903109273
:101C00003A0310923B0310923C0310923D03109252
:101C10003E0310923F031092400310924103109232
:101C20001B03109279021092780280937A029093AB
:101C30007B02A0937C02B0937D028EE191E09093B1
:101C400077028093760210928D0210928C0210928D
:101C50008F0210928E0210929102109290021092B6
:101C6000930210929202609194026E7F6D7F609356
:101C700094026695617081E0682784E00E946305A4
:101C8000E3E3F3E02491EFE1F3E08491882399F01A
:101C900090E0880F991FFC01E95FFC4FA591B4917A
:101CA000FC01E350FD4F859194918FB7F894EC912E
:101CB000E22BEC938FBFE3E3F3E0E491E093860241
:101CC000EFE1F3E0E491F0E0EE0FFF1FE350FD4F92
:101CD000859194919093880280938702E2E3F3E0E8
:101CE0002491EEE1F3E084918823C1F090E0880F25
:101CF000991FFC01E95FFC4FC591D491FC01E350B1
:101D0000FD4FA591B4919FB7F8948881E22FE0959B
:101D10008E2388838C91E823EC939FBF809194025B
:101D200081FD04C061E083E00E94630583E080934D
:101D30008202E2E3F3E0E491E0938302EEE1F3E078
:101D4000E491F0E0EE0FFF1FEF5EFC4F8591949160
:101D50009093850280938402DF91CF910895EF9252
:101D60000F931F93CF93DF93E80147FD02C034E048
:101D700001C034E1E42F440FFF0BF7FF03C0F195DE
:101D8000E195F109E32E022F2E2FAE010E940B0FD9
:101D9000CE01DF91CF911F910F91EF9008951F9386
:101DA000FC0199278827BC01E89411911032E9F3CE
:101DB000193010F01E30C8F31B3251F01D3249F4B7
:101DC000689406C00E94F60E610F711D811D911D61
:101DD000119110531A30B0F33EF4909580957095A0
:101DE00061957F4F8F4F9F4F1F910895592F482F17
:101DF000372F262F660F771F881F991F660F771FB3
:101E0000881F991F620F731F841F951F660F771F0E
:101E1000881F991F08954F925F926F927F929F92B1
:101E2000AF92BF92CF92DF92EF92FF920F931F93E8
:101E3000CF93DF93CDB7DEB729970FB6F894DEBF07
:101E40000FBECDBF6A01122FB02E2BE3201720F05A
:101E5000FF24F394F00E02C0BCE3FB2E0F2D27E00D
:101E6000AE014F5F5F4F0E949910AC018981982F9E
:101E70009970913031F0E1FC06C0E0FE06C090E2BE
:101E800005C09DE203C09BE201C090E0EE2DE07131
:101E900083FF3CC0911102C083E001C084E0811740
:101EA00018F4212F281B01C020E0E1110BC0F6011E
:101EB000822F30E2882319F031938150FBCFC20E7C
:101EC000D11C20E0992329F0D6019C93F60131968C
:101ED0006F01C6010396E2FE0AC03EE4D6013C93C0
:101EE00041E411964C93119712963C9306C03EE63E
:101EF000F601308341E641833283FC01322F40E218
:101F0000332309F442C041933150FACF82FF44C0D9
:101F1000911102C083E001C084E0811718F4212FE1
:101F2000281B01C020E0E1110BC0F601822F30E236
:101F3000882319F031938150FBCFC20ED11C20E0D1
:101F4000992329F0D6019C93F60131966F01C601C1
:101F50000396E2FE0BC039E4D6013C933EE41196B1
:101F60003C93119736E412963C9307C039E6F6018C
:101F700030833EE6318336E63283FC01322F40E285
:101F8000332319F041933150FBCFFC01E20FF11DD7
:101F900010828EEF9FEFB7C0F1E0911101C0F0E029
:101FA0006F2F70E01416150624F49A012F5F3F4F2F
:101FB00002C021E030E0260F371FBB2029F06B2D37
:101FC00070E06F5F7F4F02C060E070E0260F371F48
:101FD000612F70E0261737071CF4121B212F01C058
:101FE00020E03E2D387159F4D601322F60E23323C0
:101FF00019F06D933150FBCFC20ED11C20E0FF23AE
:1020000031F0D6019C93B6016F5F7F4F6B01E111F8
:102010000BC0F601922F30E3992319F031939150C0
:10202000FBCFC20ED11C20E09F2D940F3A81782F58
:102030007071A72E84FF03C0313309F49150191633
:1020400024F4993018F098E001C091E0E42F852F36
:1020500057FF02C0E0E080E06E2F782FE0E0F0E074
:10206000AEE29A2E3A01691A71082A01461A570AF5
:102070000B2D10E01195019511096F3F8FEF780737
:1020800029F4D6019C92C60101966C0146175707A8
:1020900084F0661677066CF47F01E40CF51CA1E071
:1020A000B0E0AC0FBD1FEA0EFB1ED7011196BC902D
:1020B00002C090E3B92E615071093196C6010196B4
:1020C0007C016017710724F0D601BC926C01D5CF5A
:1020D0006417750741F4363320F4353321F4A11029
:1020E00002C081E3B82EF601B082F701822F90E2A0
:1020F000882319F091938150FBCFF701E20FF11D76
:10210000108280E090E029960FB6F894DEBF0FBEF3
:10211000CDBFDF91CF911F910F91FF90EF90DF9096
:10212000CF90BF90AF909F907F906F905F904F90B7
:102130000895283008F027E03327DA01990F311D80
:1021400087FD916000966105710539F432602E5F5C
:102150003D9330E32A95E1F708959F3F30F08038B2
:102160007105610509F03C5F3C5F3D93913008F0DB
:102170008068911DDF93CF931F930F93FF92EF928F
:10218000192F987F9695E92F96959695E90FFF2739
:10219000EC5EFE4F99273327EE24FF24A701E701C9
:1021A00005900894079428F4360FE71EF81E491F7F
:1021B000511D660F771F881F991F0694A1F7059080
:1021C000079428F4E70EF81E491F561FC11D770F0C
:1021D000881F991F661F0694A1F70590079428F49D
:1021E000F80E491F561FC71FD11D880F991F661F64
:1021F000771F0694A1F70590079420F4490F561F06
:10220000C71FD81F990F661F771F881F0694A9F74D
:1022100084911095177041F0D695C79557954795BD
:10222000F794E7941A95C1F7EAEBF0E068941590FB
:10223000159135916591959105907FE27395E1181F
:10224000F10A430B560BC90BD009C0F7E10CF11E84
:10225000431F561FC91FD01D7EF4703311F48A9599
:10226000E6CFE894015030F0080F0AF40027021777
:1022700008F4202F2395022F7A3328F079E37D93F9
:102280002A95E9F710C07D932A9589F606949795CB
:102290006795379517951794E118F10A430B560B7C
:1022A000C90BD00998F023957E9173957A3308F085
:1022B00070E37C932013B8F77E9170617D9330F0CA
:1022C000839571E37D9370E32A95E1F71124EF90F4
:1022D000FF900F911F91CF91DF91992787FD9095E6
:1022E00008950E94B31108F481E00895E89409C0AC
:1022F00097FB3EF490958095709561957F4F8F4F39
:102300009F4F9923A9F0F92F96E9BB279395F6954E
:10231000879577956795B795F111F8CFFAF4BB0FCC
:1023200011F460FF1BC06F5F7F4F8F4F9F4F16C030
:10233000882311F096E911C0772321F09EE8872FBA
:10234000762F05C0662371F096E8862F70E060E076
:102350002AF09A95660F771F881FDAF7880F9695EF
:10236000879597F90895990F0008550FAA0BE0E893
:10237000FEEF16161706E807F907C0F01216130647
:10238000E407F50798F0621B730B840B950B39F487
:102390000A2661F0232B242B252B21F408950A26ED
:1023A00009F4A140A6958FEF811D811D08950E941B
:1023B000EA110C945B120E944D1238F00E945412E4
:1023C00020F0952311F00C9444120C944A1211241D
:1023D0000C948F120E946C1270F3959FC1F3950FAD
:1023E00050E0551F629FF001729FBB27F00DB11D99
:1023F000639FAA27F00DB11DAA1F649F6627B00D29
:10240000A11D661F829F2227B00DA11D621F739F11
:10241000B00DA11D621F839FA00D611D221F749F1F
:102420003327A00D611D231F849F600D211D822F66
:10243000762F6A2F11249F5750409AF0F1F088238D
:102440004AF0EE0FFF1FBB1F661F771F881F9150BA
:102450005040A9F79E3F510580F00C9444120C9413
:102460008F125F3FE4F3983ED4F386957795679596
:10247000B795F795E7959F5FC1F7FE2B880F911DE4
:102480009695879597F9089597F99F6780E870E08A
:1024900060E008959FEF80EC089500240A941616DA
:1024A000170618060906089500240A941216130642
:1024B000140605060895092E0394000C11F48823D0
:1024C00052F0BB0F40F4BF2B11F460FF04C06F5FEC
:1024D0007F4F8F4F9F4F089557FD9058440F551FC2
:1024E00059F05F3F71F04795880F97FB991F61F096
:1024F0009F3F79F087950895121613061406551F0D
:10250000F2CF4695F1DF08C0161617061806991F78
:10251000F1CF86957105610508940895E894BB276D
:1025200066277727CB0197F908950E94D712A59FB8
:10253000900DB49F900DA49F800D911D11240895BE
:102540002F923F924F925F926F927F928F929F92C3
:10255000AF92BF92CF92DF92EF92FF920F931F93B1
:10256000CF93DF93CDB7DEB7CA1BDB0B0FB6F89462
:10257000DEBF0FBECDBF09942A88398848885F84A2
:102580006E847D848C849B84AA84B984C884DF8013
:10259000EE80FD800C811B81AA81B981CE0FD11DF7
:1025A0000FB6F894DEBF0FBECDBFED010895A29F18
:1025B000B001B39FC001A39F700D811D1124911D17
:1025C000B29F700D811D1124911D08955058BB2795
:1025D000AA270E94FE120C945B120E944D1238F042
:1025E0000E94541220F039F49F3F19F426F40C9401
:1025F0004A120EF4E095E7FB0C944412E92F0E9476
:102600006C1258F3BA17620773078407950720F016
:1026100079F4A6F50C948E120EF4E0950B2EBA2FD9
:10262000A02D0B01B90190010C01CA01A0011124D8
:10263000FF27591B99F0593F50F4503E68F11A1684
:10264000F040A22F232F342F4427585FF3CF469515
:1026500037952795A795F0405395C9F77EF41F1637
:10266000BA0B620B730B840BBAF09150A1F0FF0F01
:10267000BB1F661F771F881FC2F70EC0BA0F621FED
:10268000731F841F48F4879577956795B795F795DD
:102690009E3F08F0B0CF9395880F08F09927EE0F72
:1026A0009795879508950E9467130C945B120E947A
:1026B000541258F00E944D1240F029F45F3F29F067
:1026C0000C94441251110C948F120C944A120E94D3
:1026D0006C1268F39923B1F3552391F3951B550BB5
:1026E000BB27AA2762177307840738F09F5F5F4FE5
:1026F000220F331F441FAA1FA9F335D00E2E3AF024
:10270000E0E832D091505040E695001CCAF72BD03B
:10271000FE2F29D0660F771F881FBB1F261737078C
:102720004807AB07B0E809F0BB0B802DBF01FF27BE
:1027300093585F4F3AF09E3F510578F00C94441245
:102740000C948F125F3FE4F3983ED4F3869577950F
:102750006795B795F7959F5FC9F7880F911D969577
:10276000879597F90895E1E0660F771F881FBB1FD3
:10277000621773078407BA0720F0621B730B840B80
:10278000BA0BEE1F88F7E09508950E94741288F046
:102790009F5798F0B92F9927B751B0F0E1F0660F25
:1027A000771F881F991F1AF0BA95C9F714C0B13066
:1027B00091F00E948E12B1E008950C948E12672F52
:1027C000782F8827B85F39F0B93FCCF38695779595
:1027D0006795B395D9F73EF490958095709561957E
:1027E0007F4F8F4F9F4F08950E94B31108F48FEFD2
:1027F00008950E94B311880B990B0895DB018F9304
:102800009F930E949512BF91AF91A29F800D911D41
:10281000A39F900DB29F900D1124089597FB072E52
:1028200016F4009407D077FD09D00E94521407FCDB
:1028300005D03EF4909581959F4F089570956195D0
:102840007F4F0895A1E21A2EAA1BBB1BFD010DC0EC
:10285000AA1FBB1FEE1FFF1FA217B307E407F50750
:1028600020F0A21BB30BE40BF50B661F771F881F2C
:10287000991F1A9469F760957095809590959B01C2
:10288000AC01BD01CF010895EE0FFF1F0590F4913B
:10289000E02D0994B7FF0C9495120E949512821BAB
:1028A000930B0895AA1BBB1B51E107C0AA1FBB1FB6
:1028B000A617B70710F0A61BB70B881F991F5A95CC
:1028C000A9F780959095BC01CD010895CF93DF9332
:1028D0008230910510F482E090E0E0914403F091A1
:1028E000450320E030E0C0E0D0E0309711F14081B6
:1028F000518148175907C0F04817590761F4828180
:102900009381209719F09B838A832BC09093450372
:102910008093440326C02115310519F0421753074F
:1029200018F49A01BE01DF01EF010280F381E02D6E
:10293000DCCF2115310509F1281B390B2430310575
:1029400090F412968D919C9113976115710521F069
:10295000FB019383828304C09093450380934403D7
:10296000FD01329644C0FD01E20FF31F8193919364
:10297000225031092D933C933AC02091420330916B
:102980004303232B41F4209104013091050130933E
:10299000430320934203209102013091030121154A
:1029A000310541F42DB73EB7409106015091070122
:1029B000241B350BE0914203F0914303E217F30728
:1029C000A0F42E1B3F0B2817390778F0AC014E5F9F
:1029D0005F4F2417350748F04E0F5F1F5093430396
:1029E000409342038193919302C0E0E0F0E0CF0175
:1029F000DF91CF9108950F931F93CF93DF930097AB
:102A000009F48CC0FC0132971382128200914403B6
:102A1000109145030115110581F420813181820F48
:102A2000931F20914203309143032817390779F50A
:102A3000F0934303E093420371C0D80140E050E0BB
:102A4000AE17BF0750F412962D913C911397AD012C
:102A50002115310509F1D901F3CF9D01DA01338345
:102A6000228360817181860F971F8217930769F413
:102A7000EC0128813981260F371F2E5F3F4F3183AC
:102A800020838A819B8193838283452B29F4F09351
:102A90004503E093440342C01396FC93EE931297D0
:102AA000ED01499159919E01240F351FE217F3075B
:102AB00071F480819181840F951F029611969C93E9
:102AC0008E938281938113969C938E931297E0E06C
:102AD000F0E0D80112968D919C911397009719F010
:102AE000F8018C01F6CF8D919C9198012E5F3F4F9C
:102AF000820F931F20914203309143032817390717
:102B000069F4309729F4109245031092440302C0EF
:102B1000138212821093430300934203DF91CF91FB
:102B20001F910F910895A0E0B0E0E9E9F5E10C9460
:102B3000A412EC01009721F4CB010E946614B8C0E6
:102B4000FC01E60FF71F9C0122503109E217F30741
:102B500008F4ACC0D9010D911C9111970617170705
:102B6000B0F00530110508F49FC0C801049786171E
:102B7000970708F499C002501109061B170B01931F
:102B800011936D937C93CF010E94FB148DC05B0168
:102B9000A01AB10A4C01800E911EA0914403B0917D
:102BA000450340E050E0E12CF12C109709F44AC0B5
:102BB000A815B905D1F56D907C901197630182E05D
:102BC000C80ED11CCA14DB0480F1A3014A195B09A9
:102BD0006A0182E0C80ED11C1296BC90129713961F
:102BE000AC91B5E0CB16D10440F0B282A3835183FF
:102BF0004083D9016D937C930AC00E5F1F4FC301C0
:102C0000800F911FF90191838083EB2DFA2FE1143E
:102C1000F10431F0D7011396FC93EE93129744C060
:102C2000F0934503E09344033FC08D919C9111972D
:102C30004817590708F4AC017D0112960D90BC911C
:102C4000A02DB3CF8091420390914303881599053D
:102C5000E1F446175707C8F48091020190910301EF
:102C6000009741F48DB79EB740910601509107013E
:102C7000841B950BE817F907C8F4F0934303E0931E
:102C80004203F901718360830FC0CB010E94661477
:102C90007C01009759F0A801BE010E946216CE0186
:102CA0000E94FB14C70104C0CE0102C080E090E086
:102CB000CDB7DEB7EEE00C94C01281E090E0F8945E
:102CC0000C948A16FB01DC0102C001900D92415068
:102CD0005040D8F70895FB01DC018D9101908019D7
:102CE0000110D9F3990B0895FB01DC0101900D92BD
:102CF0000020E1F70895FB01DC014150504048F00D
:102D000001900D920020C9F701C01D924150504022
:102D1000E0F7089511E0C3EAD1E004C0FE010E948B
:0E2D200044142196C43AD107C9F7F894FFCFA6
:102D2E000100000046038000000000006102CE0199
:102D3E00F901A8022A0208021C02000000001E036C
:102D4E00CE01C2031D0372038A0305030D0A004759
:102D5E0050524D4300474E524D4300475047474156
:102D6E0000474E474741004C6F6E67697475646546
:102D7E00202020202020203A20004C6174746964A9
:102D8E00757465202020202020203A200050726586
:102D9E00737375726520284261727329203A200080
:0C2DAE006E616E00696E66006F76660054
:107E0000112484B714BE81FFF0D085E080938100F7
:107E100082E08093C00088E18093C10086E0809377
:107E2000C20080E18093C4008EE0C9D0259A86E02C
:107E300020E33CEF91E0309385002093840096BBD3
:107E4000B09BFECF1D9AA8958150A9F7CC24DD24C4
:107E500088248394B5E0AB2EA1E19A2EF3E0BF2EE7
:107E6000A2D0813461F49FD0082FAFD0023811F036
:107E7000013811F484E001C083E08DD089C08234E0
:107E800011F484E103C0853419F485E0A6D080C0E4
:107E9000853579F488D0E82EFF2485D0082F10E0AE
:107EA000102F00270E291F29000F111F8ED06801E7
:107EB0006FC0863521F484E090D080E0DECF843638
:107EC00009F040C070D06FD0082F6DD080E0C81688
:107ED00080E7D80618F4F601B7BEE895C0E0D1E017
:107EE00062D089930C17E1F7F0E0CF16F0E7DF06D8
:107EF00018F0F601B7BEE89568D007B600FCFDCFD4
:107F0000A601A0E0B1E02C9130E011968C91119780
:107F100090E0982F8827822B932B1296FA010C0160
:107F200087BEE89511244E5F5F4FF1E0A038BF0790
:107F300051F7F601A7BEE89507B600FCFDCF97BE46
:107F4000E89526C08437B1F42ED02DD0F82E2BD052
:107F50003CD0F601EF2C8F010F5F1F4F84911BD097
:107F6000EA94F801C1F70894C11CD11CFA94CF0C13
:107F7000D11C0EC0853739F428D08EE10CD085E9AC
:107F80000AD08FE07ACF813511F488E018D01DD067
:107F900080E101D065CF982F8091C00085FFFCCF94
:107FA0009093C60008958091C00087FFFCCF809118
:107FB000C00084FD01C0A8958091C6000895E0E648
:107FC000F0E098E1908380830895EDDF803219F02E
:107FD00088E0F5DFFFCF84E1DECF1F93182FE3DFCA
:107FE0001150E9F7F2DF1F91089580E0E8DFEE27F6
:047FF000FF270994CA
:027FFE00040479
:0400000300007E007B
:00000001FF
